{
  "_format": "hh-sol-artifact-1",
  "contractName": "ERC5484",
  "sourceName": "contracts/token/ERC5484/ERC5484.sol",
  "abi": [
    {
      "inputs": [
        {
          "internalType": "string",
          "name": "name_",
          "type": "string"
        },
        {
          "internalType": "string",
          "name": "symbol_",
          "type": "string"
        }
      ],
      "stateMutability": "nonpayable",
      "type": "constructor"
    },
    {
      "anonymous": false,
      "inputs": [
        {
          "indexed": true,
          "internalType": "address",
          "name": "owner",
          "type": "address"
        },
        {
          "indexed": true,
          "internalType": "address",
          "name": "approved",
          "type": "address"
        },
        {
          "indexed": true,
          "internalType": "uint256",
          "name": "tokenId",
          "type": "uint256"
        }
      ],
      "name": "Approval",
      "type": "event"
    },
    {
      "anonymous": false,
      "inputs": [
        {
          "indexed": true,
          "internalType": "address",
          "name": "owner",
          "type": "address"
        },
        {
          "indexed": true,
          "internalType": "address",
          "name": "operator",
          "type": "address"
        },
        {
          "indexed": false,
          "internalType": "bool",
          "name": "approved",
          "type": "bool"
        }
      ],
      "name": "ApprovalForAll",
      "type": "event"
    },
    {
      "anonymous": false,
      "inputs": [
        {
          "indexed": true,
          "internalType": "address",
          "name": "from",
          "type": "address"
        },
        {
          "indexed": true,
          "internalType": "address",
          "name": "to",
          "type": "address"
        },
        {
          "indexed": true,
          "internalType": "uint256",
          "name": "tokenId",
          "type": "uint256"
        },
        {
          "indexed": false,
          "internalType": "enum IERC5484.BurnAuth",
          "name": "burnAuth",
          "type": "uint8"
        }
      ],
      "name": "Issued",
      "type": "event"
    },
    {
      "anonymous": false,
      "inputs": [
        {
          "indexed": true,
          "internalType": "address",
          "name": "previousOwner",
          "type": "address"
        },
        {
          "indexed": true,
          "internalType": "address",
          "name": "newOwner",
          "type": "address"
        }
      ],
      "name": "OwnershipTransferred",
      "type": "event"
    },
    {
      "anonymous": false,
      "inputs": [
        {
          "indexed": true,
          "internalType": "address",
          "name": "from",
          "type": "address"
        },
        {
          "indexed": true,
          "internalType": "address",
          "name": "to",
          "type": "address"
        },
        {
          "indexed": true,
          "internalType": "uint256",
          "name": "tokenId",
          "type": "uint256"
        }
      ],
      "name": "Transfer",
      "type": "event"
    },
    {
      "inputs": [
        {
          "internalType": "address",
          "name": "to",
          "type": "address"
        },
        {
          "internalType": "uint256",
          "name": "tokenId",
          "type": "uint256"
        }
      ],
      "name": "approve",
      "outputs": [],
      "stateMutability": "nonpayable",
      "type": "function"
    },
    {
      "inputs": [
        {
          "internalType": "address",
          "name": "owner",
          "type": "address"
        }
      ],
      "name": "balanceOf",
      "outputs": [
        {
          "internalType": "uint256",
          "name": "",
          "type": "uint256"
        }
      ],
      "stateMutability": "view",
      "type": "function"
    },
    {
      "inputs": [
        {
          "internalType": "uint256",
          "name": "tokenId",
          "type": "uint256"
        }
      ],
      "name": "burnAuth",
      "outputs": [
        {
          "internalType": "enum IERC5484.BurnAuth",
          "name": "",
          "type": "uint8"
        }
      ],
      "stateMutability": "view",
      "type": "function"
    },
    {
      "inputs": [
        {
          "internalType": "uint256",
          "name": "tokenId",
          "type": "uint256"
        }
      ],
      "name": "getApproved",
      "outputs": [
        {
          "internalType": "address",
          "name": "",
          "type": "address"
        }
      ],
      "stateMutability": "view",
      "type": "function"
    },
    {
      "inputs": [
        {
          "internalType": "uint256",
          "name": "tokenId",
          "type": "uint256"
        }
      ],
      "name": "getMessageToSign",
      "outputs": [
        {
          "internalType": "bytes32",
          "name": "",
          "type": "bytes32"
        }
      ],
      "stateMutability": "view",
      "type": "function"
    },
    {
      "inputs": [
        {
          "internalType": "address",
          "name": "owner",
          "type": "address"
        },
        {
          "internalType": "address",
          "name": "operator",
          "type": "address"
        }
      ],
      "name": "isApprovedForAll",
      "outputs": [
        {
          "internalType": "bool",
          "name": "",
          "type": "bool"
        }
      ],
      "stateMutability": "view",
      "type": "function"
    },
    {
      "inputs": [],
      "name": "name",
      "outputs": [
        {
          "internalType": "string",
          "name": "",
          "type": "string"
        }
      ],
      "stateMutability": "view",
      "type": "function"
    },
    {
      "inputs": [],
      "name": "owner",
      "outputs": [
        {
          "internalType": "address",
          "name": "",
          "type": "address"
        }
      ],
      "stateMutability": "view",
      "type": "function"
    },
    {
      "inputs": [
        {
          "internalType": "uint256",
          "name": "tokenId",
          "type": "uint256"
        }
      ],
      "name": "ownerOf",
      "outputs": [
        {
          "internalType": "address",
          "name": "",
          "type": "address"
        }
      ],
      "stateMutability": "view",
      "type": "function"
    },
    {
      "inputs": [],
      "name": "renounceOwnership",
      "outputs": [],
      "stateMutability": "nonpayable",
      "type": "function"
    },
    {
      "inputs": [
        {
          "internalType": "address",
          "name": "from",
          "type": "address"
        },
        {
          "internalType": "address",
          "name": "to",
          "type": "address"
        },
        {
          "internalType": "uint256",
          "name": "tokenId",
          "type": "uint256"
        }
      ],
      "name": "safeTransferFrom",
      "outputs": [],
      "stateMutability": "nonpayable",
      "type": "function"
    },
    {
      "inputs": [
        {
          "internalType": "address",
          "name": "from",
          "type": "address"
        },
        {
          "internalType": "address",
          "name": "to",
          "type": "address"
        },
        {
          "internalType": "uint256",
          "name": "tokenId",
          "type": "uint256"
        },
        {
          "internalType": "bytes",
          "name": "data",
          "type": "bytes"
        }
      ],
      "name": "safeTransferFrom",
      "outputs": [],
      "stateMutability": "nonpayable",
      "type": "function"
    },
    {
      "inputs": [
        {
          "internalType": "address",
          "name": "operator",
          "type": "address"
        },
        {
          "internalType": "bool",
          "name": "approved",
          "type": "bool"
        }
      ],
      "name": "setApprovalForAll",
      "outputs": [],
      "stateMutability": "nonpayable",
      "type": "function"
    },
    {
      "inputs": [
        {
          "internalType": "bytes4",
          "name": "interfaceId",
          "type": "bytes4"
        }
      ],
      "name": "supportsInterface",
      "outputs": [
        {
          "internalType": "bool",
          "name": "",
          "type": "bool"
        }
      ],
      "stateMutability": "view",
      "type": "function"
    },
    {
      "inputs": [],
      "name": "symbol",
      "outputs": [
        {
          "internalType": "string",
          "name": "",
          "type": "string"
        }
      ],
      "stateMutability": "view",
      "type": "function"
    },
    {
      "inputs": [
        {
          "internalType": "uint256",
          "name": "tokenId",
          "type": "uint256"
        }
      ],
      "name": "tokenURI",
      "outputs": [
        {
          "internalType": "string",
          "name": "",
          "type": "string"
        }
      ],
      "stateMutability": "view",
      "type": "function"
    },
    {
      "inputs": [
        {
          "internalType": "address",
          "name": "from",
          "type": "address"
        },
        {
          "internalType": "address",
          "name": "to",
          "type": "address"
        },
        {
          "internalType": "uint256",
          "name": "tokenId",
          "type": "uint256"
        }
      ],
      "name": "transferFrom",
      "outputs": [],
      "stateMutability": "nonpayable",
      "type": "function"
    },
    {
      "inputs": [
        {
          "internalType": "address",
          "name": "newOwner",
          "type": "address"
        }
      ],
      "name": "transferOwnership",
      "outputs": [],
      "stateMutability": "nonpayable",
      "type": "function"
    }
  ],
  "bytecode": "0x60806040523480156200001157600080fd5b50604051620015e1380380620015e18339810160408190526200003491620001a6565b818160006200004483826200029f565b5060016200005382826200029f565b505050620000706200006a6200008b60201b60201c565b6200008f565b50506006805460ff60a01b1916600360a01b1790556200036b565b3390565b600680546001600160a01b038381166001600160a01b0319831681179093556040519116919082907f8be0079c531659141344cd1fd0a4f28419497f9722a3daafe3b4186f6b6457e090600090a35050565b634e487b7160e01b600052604160045260246000fd5b600082601f8301126200010957600080fd5b81516001600160401b0380821115620001265762000126620000e1565b604051601f8301601f19908116603f01168101908282118183101715620001515762000151620000e1565b816040528381526020925086838588010111156200016e57600080fd5b600091505b8382101562000192578582018301518183018401529082019062000173565b600093810190920192909252949350505050565b60008060408385031215620001ba57600080fd5b82516001600160401b0380821115620001d257600080fd5b620001e086838701620000f7565b93506020850151915080821115620001f757600080fd5b506200020685828601620000f7565b9150509250929050565b600181811c908216806200022557607f821691505b6020821081036200024657634e487b7160e01b600052602260045260246000fd5b50919050565b601f8211156200029a57600081815260208120601f850160051c81016020861015620002755750805b601f850160051c820191505b81811015620002965782815560010162000281565b5050505b505050565b81516001600160401b03811115620002bb57620002bb620000e1565b620002d381620002cc845462000210565b846200024c565b602080601f8311600181146200030b5760008415620002f25750858301515b600019600386901b1c1916600185901b17855562000296565b600085815260208120601f198616915b828110156200033c578886015182559484019460019091019084016200031b565b50858210156200035b5787850151600019600388901b60f8161c191681555b5050505050600190811b01905550565b611266806200037b6000396000f3fe608060405234801561001057600080fd5b50600436106101165760003560e01c8063715018a6116100a2578063b88d4fde11610071578063b88d4fde14610246578063c87b56dd14610259578063d3ad25c91461026c578063e985e9c51461027f578063f2fde38b146102bb57600080fd5b8063715018a6146102125780638da5cb5b1461021a57806395d89b411461022b578063a22cb4651461023357600080fd5b8063095ea7b3116100e9578063095ea7b3146101a357806323b872dd146101b857806342842e0e146101cb5780636352211e146101de57806370a08231146101f157600080fd5b806301ffc9a71461011b5780630489b56f1461014357806306fdde0314610163578063081812fc14610178575b600080fd5b61012e610129366004610dcb565b6102ce565b60405190151581526020015b60405180910390f35b610156610151366004610de8565b6102f9565b60405161013a9190610e01565b61016b610316565b60405161013a9190610e79565b61018b610186366004610de8565b6103a8565b6040516001600160a01b03909116815260200161013a565b6101b66101b1366004610ea8565b6103cf565b005b6101b66101c6366004610ed2565b6104e9565b6101b66101d9366004610ed2565b61051a565b61018b6101ec366004610de8565b610535565b6102046101ff366004610f0e565b610595565b60405190815260200161013a565b6101b661061b565b6006546001600160a01b031661018b565b61016b61062f565b6101b6610241366004610f29565b61063e565b6101b6610254366004610f7b565b61064d565b61016b610267366004610de8565b610685565b61020461027a366004610de8565b6106f9565b61012e61028d366004611057565b6001600160a01b03918216600090815260056020908152604080832093909416825291909152205460ff1690565b6101b66102c9366004610f0e565b61073f565b60006001600160e01b03198216630489b56f60e01b14806102f357506102f3826107b8565b92915050565b600061030482610808565b5050600654600160a01b900460ff1690565b6060600080546103259061108a565b80601f01602080910402602001604051908101604052809291908181526020018280546103519061108a565b801561039e5780601f106103735761010080835404028352916020019161039e565b820191906000526020600020905b81548152906001019060200180831161038157829003601f168201915b5050505050905090565b60006103b382610808565b506000908152600460205260409020546001600160a01b031690565b60006103da82610535565b9050806001600160a01b0316836001600160a01b03160361044c5760405162461bcd60e51b815260206004820152602160248201527f4552433732313a20617070726f76616c20746f2063757272656e74206f776e656044820152603960f91b60648201526084015b60405180910390fd5b336001600160a01b03821614806104685750610468813361028d565b6104da5760405162461bcd60e51b815260206004820152603d60248201527f4552433732313a20617070726f76652063616c6c6572206973206e6f7420746f60448201527f6b656e206f776e6572206f7220617070726f76656420666f7220616c6c0000006064820152608401610443565b6104e48383610867565b505050565b6104f333826108d5565b61050f5760405162461bcd60e51b8152600401610443906110c4565b6104e4838383610954565b6104e48383836040518060200160405280600081525061064d565b6000818152600260205260408120546001600160a01b0316806102f35760405162461bcd60e51b8152602060048201526018602482015277115490cdcc8c4e881a5b9d985b1a59081d1bdad95b88125160421b6044820152606401610443565b60006001600160a01b0382166105ff5760405162461bcd60e51b815260206004820152602960248201527f4552433732313a2061646472657373207a65726f206973206e6f7420612076616044820152683634b21037bbb732b960b91b6064820152608401610443565b506001600160a01b031660009081526003602052604090205490565b61062361099c565b61062d60006109f6565b565b6060600180546103259061108a565b610649338383610a48565b5050565b61065733836108d5565b6106735760405162461bcd60e51b8152600401610443906110c4565b61067f84848484610b16565b50505050565b606061069082610808565b60006106a760408051602081019091526000815290565b905060008151116106c757604051806020016040528060008152506106f2565b806106d184610b49565b6040516020016106e2929190611111565b6040516020818303038152906040525b9392505050565b600061070482610685565b6006546040516107229291600160a01b900460ff1690602001611140565b604051602081830303815290604052805190602001209050919050565b61074761099c565b6001600160a01b0381166107ac5760405162461bcd60e51b815260206004820152602660248201527f4f776e61626c653a206e6577206f776e657220697320746865207a65726f206160448201526564647265737360d01b6064820152608401610443565b6107b5816109f6565b50565b60006001600160e01b031982166380ac58cd60e01b14806107e957506001600160e01b03198216635b5e139f60e01b145b806102f357506301ffc9a760e01b6001600160e01b03198316146102f3565b6000818152600260205260409020546001600160a01b03166107b55760405162461bcd60e51b8152602060048201526018602482015277115490cdcc8c4e881a5b9d985b1a59081d1bdad95b88125160421b6044820152606401610443565b600081815260046020526040902080546001600160a01b0319166001600160a01b038416908117909155819061089c82610535565b6001600160a01b03167f8c5be1e5ebec7d5bd14f71427d1e84f3dd0314c0f7b2291e5b200ac8c7c3b92560405160405180910390a45050565b6000806108e183610535565b9050806001600160a01b0316846001600160a01b0316148061092857506001600160a01b0380821660009081526005602090815260408083209388168352929052205460ff165b8061094c5750836001600160a01b0316610941846103a8565b6001600160a01b0316145b949350505050565b60405162461bcd60e51b815260206004820152601f60248201527f455243353438343a206e6f6e2d7472616e7366657261626c6520746f6b656e006044820152606401610443565b6006546001600160a01b0316331461062d5760405162461bcd60e51b815260206004820181905260248201527f4f776e61626c653a2063616c6c6572206973206e6f7420746865206f776e65726044820152606401610443565b600680546001600160a01b038381166001600160a01b0319831681179093556040519116919082907f8be0079c531659141344cd1fd0a4f28419497f9722a3daafe3b4186f6b6457e090600090a35050565b816001600160a01b0316836001600160a01b031603610aa95760405162461bcd60e51b815260206004820152601960248201527f4552433732313a20617070726f766520746f2063616c6c6572000000000000006044820152606401610443565b6001600160a01b03838116600081815260056020908152604080832094871680845294825291829020805460ff191686151590811790915591519182527f17307eab39ab6107e8899845ad3d59bd9653f200f220920489ca2b5937696c31910160405180910390a3505050565b610b21848484610954565b610b2d84848484610bdc565b61067f5760405162461bcd60e51b815260040161044390611184565b60606000610b5683610cdd565b600101905060008167ffffffffffffffff811115610b7657610b76610f65565b6040519080825280601f01601f191660200182016040528015610ba0576020820181803683370190505b5090508181016020015b600019016f181899199a1a9b1b9c1cb0b131b232b360811b600a86061a8153600a8504945084610baa57509392505050565b60006001600160a01b0384163b15610cd257604051630a85bd0160e11b81526001600160a01b0385169063150b7a0290610c209033908990889088906004016111d6565b6020604051808303816000875af1925050508015610c5b575060408051601f3d908101601f19168201909252610c5891810190611213565b60015b610cb8573d808015610c89576040519150601f19603f3d011682016040523d82523d6000602084013e610c8e565b606091505b508051600003610cb05760405162461bcd60e51b815260040161044390611184565b805181602001fd5b6001600160e01b031916630a85bd0160e11b14905061094c565b506001949350505050565b60008072184f03e93ff9f4daa797ed6e38ed64bf6a1f0160401b8310610d1c5772184f03e93ff9f4daa797ed6e38ed64bf6a1f0160401b830492506040015b6d04ee2d6d415b85acef81000000008310610d48576d04ee2d6d415b85acef8100000000830492506020015b662386f26fc100008310610d6657662386f26fc10000830492506010015b6305f5e1008310610d7e576305f5e100830492506008015b6127108310610d9257612710830492506004015b60648310610da4576064830492506002015b600a83106102f35760010192915050565b6001600160e01b0319811681146107b557600080fd5b600060208284031215610ddd57600080fd5b81356106f281610db5565b600060208284031215610dfa57600080fd5b5035919050565b6020810160048310610e2357634e487b7160e01b600052602160045260246000fd5b91905290565b60005b83811015610e44578181015183820152602001610e2c565b50506000910152565b60008151808452610e65816020860160208601610e29565b601f01601f19169290920160200192915050565b6020815260006106f26020830184610e4d565b80356001600160a01b0381168114610ea357600080fd5b919050565b60008060408385031215610ebb57600080fd5b610ec483610e8c565b946020939093013593505050565b600080600060608486031215610ee757600080fd5b610ef084610e8c565b9250610efe60208501610e8c565b9150604084013590509250925092565b600060208284031215610f2057600080fd5b6106f282610e8c565b60008060408385031215610f3c57600080fd5b610f4583610e8c565b915060208301358015158114610f5a57600080fd5b809150509250929050565b634e487b7160e01b600052604160045260246000fd5b60008060008060808587031215610f9157600080fd5b610f9a85610e8c565b9350610fa860208601610e8c565b925060408501359150606085013567ffffffffffffffff80821115610fcc57600080fd5b818701915087601f830112610fe057600080fd5b813581811115610ff257610ff2610f65565b604051601f8201601f19908116603f0116810190838211818310171561101a5761101a610f65565b816040528281528a602084870101111561103357600080fd5b82602086016020830137600060208483010152809550505050505092959194509250565b6000806040838503121561106a57600080fd5b61107383610e8c565b915061108160208401610e8c565b90509250929050565b600181811c9082168061109e57607f821691505b6020821081036110be57634e487b7160e01b600052602260045260246000fd5b50919050565b6020808252602d908201527f4552433732313a2063616c6c6572206973206e6f7420746f6b656e206f776e6560408201526c1c881bdc88185c1c1c9bdd9959609a1b606082015260800190565b60008351611123818460208801610e29565b835190830190611137818360208801610e29565b01949350505050565b60008351611152818460208801610e29565b82016004841061117257634e487b7160e01b600052602160045260246000fd5b60f89390931b83525050600101919050565b60208082526032908201527f4552433732313a207472616e7366657220746f206e6f6e20455243373231526560408201527131b2b4bb32b91034b6b83632b6b2b73a32b960711b606082015260800190565b6001600160a01b038581168252841660208201526040810183905260806060820181905260009061120990830184610e4d565b9695505050505050565b60006020828403121561122557600080fd5b81516106f281610db556fea264697066735822122068ca9d333b77d28be2871e791711f14351419f0524deb98826f5aaf2b33e815464736f6c63430008120033",
  "linkReferences": {},
  "deployedLinkReferences": {}
}